{
  "contractName": "ToDoList",
  "abi": [
    {
      "constant": true,
      "inputs": [],
      "name": "taskCounter",
      "outputs": [
        {
          "name": "",
          "type": "uint256"
        }
      ],
      "payable": false,
      "stateMutability": "view",
      "type": "function",
      "signature": "0x58671730"
    },
    {
      "constant": true,
      "inputs": [
        {
          "name": "",
          "type": "uint256"
        }
      ],
      "name": "tasks",
      "outputs": [
        {
          "name": "ID",
          "type": "uint256"
        },
        {
          "name": "desc",
          "type": "string"
        },
        {
          "name": "completed",
          "type": "bool"
        }
      ],
      "payable": false,
      "stateMutability": "view",
      "type": "function",
      "signature": "0x8d977672"
    },
    {
      "inputs": [],
      "payable": false,
      "stateMutability": "nonpayable",
      "type": "constructor",
      "signature": "constructor"
    },
    {
      "constant": false,
      "inputs": [
        {
          "name": "desc",
          "type": "string"
        }
      ],
      "name": "addTask",
      "outputs": [],
      "payable": false,
      "stateMutability": "nonpayable",
      "type": "function",
      "signature": "0x67238562"
    }
  ],
  "bytecode": "0x60806040526000805534801561001457600080fd5b506100af608060405190810160405280604d81526020017f57656c636f6d6520746f20546f446f4554482c204120536d61727420436f6e7481526020017f7261637420626173656420746f20646f206c697374206170706c69636174696f81526020017f6e206f6e20457468657265756d000000000000000000000000000000000000008152506100b4640100000000026401000000009004565b6101bb565b600080546001908101808355604080516060810182528281526020808201878152828401879052938652848152919094208451815591518051929361010193908501929190910190610120565b50604091909101516002909101805460ff191691151591909117905550565b828054600181600116156101000203166002900490600052602060002090601f016020900481019282601f1061016157805160ff191683800117855561018e565b8280016001018555821561018e579182015b8281111561018e578251825591602001919060010190610173565b5061019a92915061019e565b5090565b6101b891905b8082111561019a57600081556001016101a4565b90565b6103d3806101ca6000396000f3fe6080604052600436106100565763ffffffff7c010000000000000000000000000000000000000000000000000000000060003504166358671730811461005b57806367238562146100825780638d97767214610137575b600080fd5b34801561006757600080fd5b506100706101eb565b60408051918252519081900360200190f35b34801561008e57600080fd5b50610135600480360360208110156100a557600080fd5b8101906020810181356401000000008111156100c057600080fd5b8201836020820111156100d257600080fd5b803590602001918460018302840111640100000000831117156100f457600080fd5b91908080601f0160208091040260200160405190810160405280939291908181526020018383808284376000920191909152509295506101f1945050505050565b005b34801561014357600080fd5b506101616004803603602081101561015a57600080fd5b503561025d565b604051808481526020018060200183151515158152602001828103825284818151815260200191508051906020019080838360005b838110156101ae578181015183820152602001610196565b50505050905090810190601f1680156101db5780820380516001836020036101000a031916815260200191505b5094505050505060405180910390f35b60005481565b600080546001908101808355604080516060810182528281526020808201878152828401879052938652848152919094208451815591518051929361023e9390850192919091019061030c565b50604091909101516002909101805460ff191691151591909117905550565b600160208181526000928352604092839020805481840180548651600296821615610100026000190190911695909504601f810185900485028601850190965285855290949193929091908301828280156102f95780601f106102ce576101008083540402835291602001916102f9565b820191906000526020600020905b8154815290600101906020018083116102dc57829003601f168201915b5050506002909301549192505060ff1683565b828054600181600116156101000203166002900490600052602060002090601f016020900481019282601f1061034d57805160ff191683800117855561037a565b8280016001018555821561037a579182015b8281111561037a57825182559160200191906001019061035f565b5061038692915061038a565b5090565b6103a491905b808211156103865760008155600101610390565b9056fea165627a7a72305820d1c6ff9a207197041481f48ee9b5ba6ac6d06599626027fa81bec62cf094913d0029",
  "source": "pragma solidity ^0.5.0;\n\ncontract ToDoList {\n    uint public taskCounter = 0;\n\n    struct Task {\n        uint ID;\n        string desc;\n        bool completed;\n    }\n\n    mapping(uint => Task) public tasks;\n\n    constructor() public {\n        addTask(\"Welcome to ToDoETH, A Smart Contract based to do list application on Ethereum\");\n    }\n\n    function addTask(string memory desc) public {\n        taskCounter++;\n        tasks[taskCounter] = Task(taskCounter, desc, false);\n    }\n}",
  "sourcePath": "/Users/ahaankanaujia/Desktop/Projects/ETH_ToDoList/contracts/ToDoList.sol",
  "compiler": {
    "name": "solc",
    "version": "0.5.0+commit.1d4f565a.Emscripten.clang"
  },
  "schemaVersion": "3.0.1",
  "updatedAt": "2022-06-25T23:49:44.595Z",
  "devdoc": {
    "methods": {}
  },
  "userdoc": {
    "methods": {}
  }
}