{
  "contractName": "ToDoList",
  "abi": [
    {
      "constant": true,
      "inputs": [],
      "name": "taskCounter",
      "outputs": [
        {
          "name": "",
          "type": "uint256"
        }
      ],
      "payable": false,
      "stateMutability": "view",
      "type": "function",
      "signature": "0x58671730"
    },
    {
      "constant": true,
      "inputs": [
        {
          "name": "",
          "type": "uint256"
        }
      ],
      "name": "tasks",
      "outputs": [
        {
          "name": "ID",
          "type": "uint256"
        },
        {
          "name": "title",
          "type": "string"
        },
        {
          "name": "desc",
          "type": "string"
        },
        {
          "name": "completed",
          "type": "bool"
        }
      ],
      "payable": false,
      "stateMutability": "view",
      "type": "function",
      "signature": "0x8d977672"
    },
    {
      "inputs": [],
      "payable": false,
      "stateMutability": "nonpayable",
      "type": "constructor",
      "signature": "constructor"
    },
    {
      "constant": false,
      "inputs": [
        {
          "name": "title",
          "type": "string"
        },
        {
          "name": "desc",
          "type": "string"
        }
      ],
      "name": "addTask",
      "outputs": [],
      "payable": false,
      "stateMutability": "nonpayable",
      "type": "function",
      "signature": "0xb37b1000"
    }
  ],
  "bytecode": "0x60806040526000805534801561001457600080fd5b506100bf6040805190810160405280601281526020017f57656c636f6d6520746f20546f446f4554480000000000000000000000000000815250606060405190810160405280603981526020017f4120536d61727420436f6e747261637420626173656420746f20646f206c697381526020017f74206170706c69636174696f6e206f6e20457468657265756d000000000000008152506100c4640100000000026401000000009004565b6101ef565b60008054600190810180835560408051608081018252828152602080820188815282840188905260608301879052938652848152919094208451815591518051929361011893908501929190910190610154565b5060408201518051610134916002840191602090910190610154565b50606091909101516003909101805460ff19169115159190911790555050565b828054600181600116156101000203166002900490600052602060002090601f016020900481019282601f1061019557805160ff19168380011785556101c2565b828001600101855582156101c2579182015b828111156101c25782518255916020019190600101906101a7565b506101ce9291506101d2565b5090565b6101ec91905b808211156101ce57600081556001016101d8565b90565b610576806101fe6000396000f3fe6080604052600436106100565763ffffffff7c010000000000000000000000000000000000000000000000000000000060003504166358671730811461005b5780638d97767214610082578063b37b10001461019c575b600080fd5b34801561006757600080fd5b506100706102d8565b60408051918252519081900360200190f35b34801561008e57600080fd5b506100ac600480360360208110156100a557600080fd5b50356102de565b60405180858152602001806020018060200184151515158152602001838103835286818151815260200191508051906020019080838360005b838110156100fd5781810151838201526020016100e5565b50505050905090810190601f16801561012a5780820380516001836020036101000a031916815260200191505b50838103825285518152855160209182019187019080838360005b8381101561015d578181015183820152602001610145565b50505050905090810190601f16801561018a5780820380516001836020036101000a031916815260200191505b50965050505050505060405180910390f35b3480156101a857600080fd5b506102d6600480360360408110156101bf57600080fd5b8101906020810181356401000000008111156101da57600080fd5b8201836020820111156101ec57600080fd5b8035906020019184600183028401116401000000008311171561020e57600080fd5b91908080601f016020809104026020016040519081016040528093929190818152602001838380828437600092019190915250929594936020810193503591505064010000000081111561026157600080fd5b82018360208201111561027357600080fd5b8035906020019184600183028401116401000000008311171561029557600080fd5b91908080601f01602080910402602001604051908101604052809392919081815260200183838082843760009201919091525092955061041f945050505050565b005b60005481565b600160208181526000928352604092839020805481840180548651600296821615610100026000190190911695909504601f8101859004850286018501909652858552909491939290919083018282801561037a5780601f1061034f5761010080835404028352916020019161037a565b820191906000526020600020905b81548152906001019060200180831161035d57829003601f168201915b50505060028085018054604080516020601f600019610100600187161502019094169590950492830185900485028101850190915281815295969594509092509083018282801561040c5780601f106103e15761010080835404028352916020019161040c565b820191906000526020600020905b8154815290600101906020018083116103ef57829003601f168201915b5050506003909301549192505060ff1684565b600080546001908101808355604080516080810182528281526020808201888152828401889052606083018790529386528481529190942084518155915180519293610473939085019291909101906104af565b506040820151805161048f9160028401916020909101906104af565b50606091909101516003909101805460ff19169115159190911790555050565b828054600181600116156101000203166002900490600052602060002090601f016020900481019282601f106104f057805160ff191683800117855561051d565b8280016001018555821561051d579182015b8281111561051d578251825591602001919060010190610502565b5061052992915061052d565b5090565b61054791905b808211156105295760008155600101610533565b9056fea165627a7a7230582035c2110a3f08b54959e13554e0374efc4cda8a175cf4685c43e8d99bf1ef82760029",
  "source": " pragma solidity ^0.5.0;\n\n contract ToDoList {\n     uint public taskCounter = 0;\n\n     struct Task {\n         uint ID;\n         string title;\n         string desc;\n         bool completed;\n     }\n\n     mapping(uint => Task) public tasks;\n\n     constructor() public {\n        addTask(\"Welcome to ToDoETH\", \"A Smart Contract based to do list application on Ethereum\");\n     }\n\n     function addTask(string memory title, string memory desc) public {\n        taskCounter++;\n        tasks[taskCounter] = Task(taskCounter, title, desc, false);\n     }\n }\n \n",
  "sourcePath": "/Users/ahaankanaujia/Desktop/Projects/ETH_ToDoList/contracts/ToDoList.sol",
  "compiler": {
    "name": "solc",
    "version": "0.5.0+commit.1d4f565a.Emscripten.clang"
  },
  "schemaVersion": "3.0.1",
  "updatedAt": "2022-06-24T17:12:03.871Z",
  "devdoc": {
    "methods": {}
  },
  "userdoc": {
    "methods": {}
  }
}