{
  "contractName": "ToDoList",
  "abi": [
    {
      "constant": true,
      "inputs": [],
      "name": "taskCounter",
      "outputs": [
        {
          "name": "",
          "type": "uint256"
        }
      ],
      "payable": false,
      "stateMutability": "view",
      "type": "function",
      "signature": "0x58671730"
    },
    {
      "constant": true,
      "inputs": [
        {
          "name": "",
          "type": "uint256"
        }
      ],
      "name": "tasks",
      "outputs": [
        {
          "name": "ID",
          "type": "uint256"
        },
        {
          "name": "desc",
          "type": "string"
        },
        {
          "name": "completed",
          "type": "bool"
        }
      ],
      "payable": false,
      "stateMutability": "view",
      "type": "function",
      "signature": "0x8d977672"
    },
    {
      "inputs": [],
      "payable": false,
      "stateMutability": "nonpayable",
      "type": "constructor",
      "signature": "constructor"
    },
    {
      "anonymous": false,
      "inputs": [
        {
          "indexed": false,
          "name": "id",
          "type": "uint256"
        },
        {
          "indexed": false,
          "name": "content",
          "type": "string"
        },
        {
          "indexed": false,
          "name": "completed",
          "type": "bool"
        }
      ],
      "name": "addedTask",
      "type": "event",
      "signature": "0x1e4a028cb8265c07663aba1a16f5ec9a89c8789f811f8dc2c1facb8f8f06e93b"
    },
    {
      "anonymous": false,
      "inputs": [
        {
          "indexed": false,
          "name": "id",
          "type": "uint256"
        },
        {
          "indexed": false,
          "name": "completed",
          "type": "bool"
        }
      ],
      "name": "completedTask",
      "type": "event",
      "signature": "0x173b04561cee35dd1ffe62fbba765e0c2e28ff098c0a17d7bdc4c564fbc8a889"
    },
    {
      "constant": false,
      "inputs": [
        {
          "name": "desc",
          "type": "string"
        }
      ],
      "name": "addTask",
      "outputs": [],
      "payable": false,
      "stateMutability": "nonpayable",
      "type": "function",
      "signature": "0x67238562"
    },
    {
      "constant": false,
      "inputs": [
        {
          "name": "id",
          "type": "uint256"
        }
      ],
      "name": "toggleCompleted",
      "outputs": [],
      "payable": false,
      "stateMutability": "nonpayable",
      "type": "function",
      "signature": "0x455f5024"
    }
  ],
  "bytecode": "0x60806040526000805534801561001457600080fd5b506100af608060405190810160405280604d81526020017f57656c636f6d6520746f20546f446f4554482c204120536d61727420436f6e7481526020017f7261637420626173656420746f20646f206c697374206170706c69636174696f81526020017f6e206f6e20457468657265756d000000000000000000000000000000000000008152506100b4640100000000026401000000009004565b610273565b6000805460019081018083556040805160608101825282815260208082018781528284018790529386528481529190942084518155915180519293610101939085019291909101906101d8565b5060408201518160020160006101000a81548160ff0219169083151502179055509050507f1e4a028cb8265c07663aba1a16f5ec9a89c8789f811f8dc2c1facb8f8f06e93b600054826000604051808481526020018060200183151515158152602001828103825284818151815260200191508051906020019080838360005b83811015610199578181015183820152602001610181565b50505050905090810190601f1680156101c65780820380516001836020036101000a031916815260200191505b5094505050505060405180910390a150565b828054600181600116156101000203166002900490600052602060002090601f016020900481019282601f1061021957805160ff1916838001178555610246565b82800160010185558215610246579182015b8281111561024657825182559160200191906001019061022b565b50610252929150610256565b5090565b61027091905b80821115610252576000815560010161025c565b90565b610644806102826000396000f3fe6080604052600436106100615763ffffffff7c0100000000000000000000000000000000000000000000000000000000600035041663455f50248114610066578063586717301461009257806367238562146100b95780638d9776721461016c575b600080fd5b34801561007257600080fd5b506100906004803603602081101561008957600080fd5b5035610220565b005b34801561009e57600080fd5b506100a7610380565b60408051918252519081900360200190f35b3480156100c557600080fd5b50610090600480360360208110156100dc57600080fd5b8101906020810181356401000000008111156100f757600080fd5b82018360208201111561010957600080fd5b8035906020019184600183028401116401000000008311171561012b57600080fd5b91908080601f016020809104026020016040519081016040528093929190818152602001838380828437600092019190915250929550610386945050505050565b34801561017857600080fd5b506101966004803603602081101561018f57600080fd5b50356104aa565b604051808481526020018060200183151515158152602001828103825284818151815260200191508051906020019080838360005b838110156101e35781810151838201526020016101cb565b50505050905090810190601f1680156102105780820380516001836020036101000a031916815260200191505b5094505050505060405180910390f35b610228610559565b60008281526001602081815260409283902083516060810185528154815281840180548651600296821615610100026000190190911695909504601f810185900485028601850190965285855290949193858401939092908301828280156102d15780601f106102a6576101008083540402835291602001916102d1565b820191906000526020600020905b8154815290600101906020018083116102b457829003601f168201915b50505091835250506002919091015460ff161515602091820152604080830180511590526000858152600180845291902083518155838301518051949550859491936103229385019291019061057d565b50604091820151600291909101805460ff1916911515919091179055818101518151848152901515602082015281517f173b04561cee35dd1ffe62fbba765e0c2e28ff098c0a17d7bdc4c564fbc8a889929181900390910190a15050565b60005481565b60008054600190810180835560408051606081018252828152602080820187815282840187905293865284815291909420845181559151805192936103d39390850192919091019061057d565b5060408201518160020160006101000a81548160ff0219169083151502179055509050507f1e4a028cb8265c07663aba1a16f5ec9a89c8789f811f8dc2c1facb8f8f06e93b600054826000604051808481526020018060200183151515158152602001828103825284818151815260200191508051906020019080838360005b8381101561046b578181015183820152602001610453565b50505050905090810190601f1680156104985780820380516001836020036101000a031916815260200191505b5094505050505060405180910390a150565b600160208181526000928352604092839020805481840180548651600296821615610100026000190190911695909504601f810185900485028601850190965285855290949193929091908301828280156105465780601f1061051b57610100808354040283529160200191610546565b820191906000526020600020905b81548152906001019060200180831161052957829003601f168201915b5050506002909301549192505060ff1683565b60606040519081016040528060008152602001606081526020016000151581525090565b828054600181600116156101000203166002900490600052602060002090601f016020900481019282601f106105be57805160ff19168380011785556105eb565b828001600101855582156105eb579182015b828111156105eb5782518255916020019190600101906105d0565b506105f79291506105fb565b5090565b61061591905b808211156105f75760008155600101610601565b9056fea165627a7a72305820e927546d72a28b5e35a6ffb07300aa7a34c737931bfd03d9c33a2f4a0a08b5cd0029",
  "source": "pragma solidity ^0.5.0;\n\ncontract ToDoList {\n    uint public taskCounter = 0;\n\n    struct Task {\n        uint ID;\n        string desc;\n        bool completed;\n    }\n\n    mapping(uint => Task) public tasks;\n\n    constructor() public {\n        addTask(\"Welcome to ToDoETH, A Smart Contract based to do list application on Ethereum\");\n    }\n\n    event addedTask(\n        uint id,\n        string content,\n        bool completed\n    );\n\n    event completedTask(\n        uint id,\n        bool completed\n    );\n\n    function addTask(string memory desc) public {\n        taskCounter++;\n        tasks[taskCounter] = Task(taskCounter, desc, false);\n        emit addedTask(taskCounter, desc, false);\n    }\n\n    function toggleCompleted(uint id) public {\n        Task memory task = tasks[id];\n        task.completed = !task.completed;\n        tasks[id] = task;\n        emit completedTask(id, task.completed);\n    }\n}\n",
  "sourcePath": "/Users/ahaankanaujia/Desktop/Projects/ETH_ToDoList/contracts/ToDoList.sol",
  "compiler": {
    "name": "solc",
    "version": "0.5.0+commit.1d4f565a.Emscripten.clang"
  },
  "schemaVersion": "3.0.1",
  "updatedAt": "2022-06-26T00:21:53.370Z",
  "devdoc": {
    "methods": {}
  },
  "userdoc": {
    "methods": {}
  }
}